:020000040800F2
:100000000028002065140008F5130008FB13000801
:1000100001140008071400080D1400080000000077
:1000200000000000000000000000000013140008A1
:100030001F140008000000002B14000837140008EB
:10004000AD140008AD140008AD140008AD1400088C
:10005000AD140008AD140008AD140008AD1400087C
:10006000AD140008AD140008AD140008AD1400086C
:10007000AD140008AD140008AD140008AD1400085C
:10008000AD140008AD140008AD140008AD1400084C
:10009000AD140008AD140008AD140008AD1400083C
:1000A000AD140008AD140008AD140008AD1400082C
:1000B00045140008AD14000800000000AD1400084D
:1000C000AD1400080000000000000000AD1400089E
:1000D00000000000AD140008AD140008000000008E
:1000E000AD140008AD140008AD14000800000000B5
:1000F0000000000000000000000000000000000000
:0C01000000000000000000005FF808F1A3
:10010C0010B5054C237833B9044B13B10448AFF345
:10011C0000800123237010BD680000200000000047
:10012C00F42A000808B5034B1BB103490348AFF38D
:10013C00008008BD000000006C000020F42A0008BC
:10014C0080B400AF064B1B68012B04D1044B00227A
:10015C001A60012300E000231846BD4680BC70479E
:10016C008400002080B400AF064B5B68012B04D1E7
:10017C00044B00225A60012300E000231846BD46C0
:10018C0080BC70478400002080B400AF064B9B6895
:10019C00012B04D1044B00229A60012300E00023C0
:1001AC001846BD4680BC70478400002080B582B0E4
:1001BC0000AF4B4B1B684B4A13604B4B1B68484AB8
:1001CC0013604FF40051494801F056FC03461A469F
:1001DC00454B1A60424B5B68424A5360424B5B682A
:1001EC003F4A53604FF48041404801F045FC0346C0
:1001FC001A463D4B5A603A4B9B683A4A93603A4BCD
:10020C009B68374A93604FF40041384801F034FC46
:10021C0003461A46344B9A6000237B6058E0324AFE
:10022C007B6852F823202E497B6851F823309A4280
:10023C004BD12B4A7B6852F823202A497B6851F812
:10024C0023309A4241D12A4A7B6852F8232025490F
:10025C007B6851F823309A4218D0224A7B6852F8B6
:10026C00232023497B6841F82320214A7B6852F8DC
:10027C002330002B29D11F4A7B68012142F823101F
:10028C001D4A7B68C82142F823101EE01A4A7B687D
:10029C0052F823305A1E18497B6841F82320164A1D
:1002AC007B6852F82330002B0FD1134A7B68C8218E
:1002BC0042F823100E4A7B6852F82330002B04D1ED
:1002CC000C4A7B68012142F823107B6801337B6068
:1002DC007B68022BA3DD00BF00BF0837BD4680BD85
:1002EC000C0000201800002000000020001001402D
:1002FC0024000020840000203000002080B500AFD6
:10030C00012201210E4801F0CEFB012202210C48F2
:10031C0001F0C9FB01220421094801F0C4FB0122B0
:10032C000821074801F0BFFB01221021044801F00D
:10033C00BAFB01222021024801F0B5FB00BF80BDB1
:10034C000008014080B582B000AF78607B68092B53
:10035C007FD801A252F823F08D030008A3030008F4
:10036C00B9030008CF030008E5030008FB030008ED
:10037C0011040008270400083D0400084904000883
:10038C0000223F21354801F08EFB012240213348E9
:10039C0001F089FB5EE000220621304801F083FB6E
:1003AC00012279212D4801F07EFB53E000225B21D4
:1003BC002A4801F078FB01222421284801F073FB24
:1003CC0048E000224F21254801F06DFB012230212D
:1003DC00224801F068FB3DE0002266211F4801F035
:1003EC0062FB012219211D4801F05DFB32E0002265
:1003FC006D211A4801F057FB01221221174801F018
:10040C0052FB27E000227D21144801F04CFB012215
:10041C000221124801F047FB1CE0002207210F4883
:10042C0001F041FB012278210C4801F03CFB11E06A
:10043C0000227F21094801F036FB0BE000226F21DE
:10044C00064801F030FB01221021044801F02BFB7F
:10045C0000E000BF00BF0837BD4680BD000C014066
:10046C0080B582B000AF78607B68092B00F2948075
:10047C0001A252F823F000BFAD040008C704000825
:10048C00E1040008FB040008150500082F0500080E
:10049C0049050008630500087D0500088B05000868
:1004AC0000224FF4FC513F4801F0FDFA01224FF4B9
:1004BC0000513C4801F0F7FA6FE000224FF4407114
:1004CC00384801F0F0FA01224FF47251354801F02E
:1004DC00EAFA62E000224FF43651324801F0E3FAB6
:1004EC0001224FF490512F4801F0DDFA55E0002223
:1004FC004FF41E512B4801F0D6FA01224FF4C05193
:10050C00284801F0D0FA48E000224FF44C5125481D
:10051C0001F0C9FA01224FF44861224801F0C3FAF4
:10052C003BE000224FF45A511E4801F0BCFA012264
:10053C004FF410611B4801F0B6FA2EE000224FF484
:10054C007A51184801F0AFFA01224FF48071154826
:10055C0001F0A9FA21E000224FF46071114801F07A
:10056C00A2FA01224FF470510E4801F09CFA14E0EB
:10057C0000224FF47E510B4801F095FA0DE0002259
:10058C004FF45E51074801F08EFA01224FF40061DE
:10059C00044801F088FA00E000BF00BF0837BD46F0
:1005AC0080BD00BF000C014080B582B000AF786008
:1005BC007B68032B5AD801A252F823F0D905000806
:1005CC000106000829060008510600082A4A7B6823
:1005DC0052F823301846FFF7B5FE00224FF4007195
:1005EC00264801F060FA01224FF48061234801F0A3
:1005FC005AFA3CE0204A7B6852F823301846FFF741
:10060C00A1FE01224FF400711C4801F04CFA0022AB
:10061C004FF48061194801F046FA28E0164A7B68CD
:10062C0052F823301846FFF71BFF00224FF40061ED
:10063C00124801F038FA01224FF480510F4801F0B2
:10064C0032FA14E00C4A7B6852F823301846FFF754
:10065C0007FF01224FF40061084801F024FA002240
:10066C004FF48051054801F01EFA00E000BF00BFB6
:10067C000837BD4680BD00BF48000020000801407F
:10068C0080B400AF1A4B1B681A4A82FB03129210FB
:10069C00DB17D31A184A1360154B1968154B83FBDB
:1006AC0001239A10CB17D21A13469B0013445B00FC
:1006BC00CA1A114B5A60114B1B680E4A82FB03126B
:1006CC009210DB17D31A0C4A93600C4B1968094B28
:1006DC0083FB01239A10CB17D21A13469B001344A9
:1006EC005B00CA1A044BDA6000BFBD4680BC704781
:1006FC009000002067666666480000209400002089
:10070C0080B500AF794B1B68072B00F26B8401A2FC
:10071C0052F823F041070008D50700082509000806
:10072C00490A0008990B0008BD0C0008CD0D000803
:10073C00B50E0008002201216D4801F0B4F9012228
:10074C0002216B4801F0AFF901220421684801F045
:10075C00AAF901220821664801F0A5F9012210210D
:10076C00634801F0A0F900222021614801F09BF9B7
:10077C005E4B01221A605F4B1B68013B5E4A1360A3
:10078C005E4B1B68013B5E4A13605E4B00221A6095
:10079C00FFF776FF5B4B1B681846FFF705FF594BBD
:1007AC001B6802331846FFF7FFFE544B1B684FF4CF
:1007BC007A7202FB03F3184600F05EFD4FF4FA70F8
:1007CC0000F074FD00F01DBC4F4B1B68012B31D1A8
:1007DC0000220121464801F066F901220221444819
:1007EC0001F061F901220421414801F05CF9012278
:1007FC0008213F4801F057F9002210213C4801F034
:10080C0052F9012220213A4801F04DF9374B0222CE
:10081C001A603E4B1B68384A13603C4B1B68384AC5
:10082C0013603A4B1B684FF47A7202FB03F31846C1
:10083C0000F022FD364B1B68012B24D1314B1B6879
:10084C00C3F101032F4A13602E4B1B68002B0BD1F5
:10085C00294B1B68013B284A1360294B1B68013B41
:10086C00274A1360FFF70CFF264B1B681846FFF74F
:10087C009BFE244B1B6802331846FFF795FE4FF482
:10088C00FA7000F013FDFFF75BFC0346012B40F000
:10089C00AB83164B05221A60174B00221A60184BBB
:1008AC0002221A60174B00221A60FFF7E9FE154B63
:1008BC001B681846FFF778FE124B1B68023318466C
:1008CC00FFF772FE134B00221A60FFF717FD002290
:1008DC000121074801F0E7F800220821044801F043
:1008EC00E2F84FF4FA7000F0C7FC7DE3B000002092
:1008FC00000801403C000020900000204400002033
:10090C00940000209C000020A40000204000002047
:10091C00AC00002098000020914B1B68012B31D1BA
:10092C00012201218F4801F0BEF8012202218D48DD
:10093C0001F0B9F8002204218A4801F0B4F8002231
:10094C000821884801F0AFF801221021854801F0F8
:10095C00AAF801222021834801F0A5F8824B03223A
:10096C001A60824B1B68824A1360824B1B68824A56
:10097C0013607E4B1B684FF47A7202FB03F318462C
:10098C0000F07AFC7D4B1B68012B24D17C4B1B683F
:10099C00C3F101037A4A1360794B1B68002B0BD10E
:1009AC00734B1B68013B724A1360734B1B68013B12
:1009BC00714A1360FFF764FE714B1B681846FFF712
:1009CC00F3FD6F4B1B6802331846FFF7EDFD4FF438
:1009DC00FA7000F06BFCFFF7B3FB0346012B40F001
:1009EC000583614B05221A60614B00221A60624B31
:1009FC0002221A60624B00221A60FFF741FE604B24
:100A0C001B681846FFF7D0FD5D4B1B680233184678
:100A1C00FFF7CAFD5B4B00221A60FFF76FFC002248
:100A2C000121504801F03FF8002208214D4801F007
:100A3C003AF84FF4FA7000F01FFCD7E2484B1B68F1
:100A4C00012B31D101220121464801F02CF8002262
:100A5C000221444801F027F801220421414801F009
:100A6C0022F8002208213F4801F01DF80122102134
:100A7C003C4801F018F8012220213A4801F013F803
:100A8C00394B04221A60404B1B68394A13603E4BA9
:100A9C001B68394A13603C4B1B684FF47A7202FB9B
:100AAC0003F3184600F0E8FB344B1B68012B24D1F0
:100ABC00334B1B68C3F10103314A1360304B1B6885
:100ACC00002B0BD12A4B1B68013B294A13602A4B84
:100ADC001B68013B284A1360FFF7D2FD284B1B68AB
:100AEC001846FFF761FD264B1B6802331846FFF7CB
:100AFC005BFD4FF4FA7000F0D9FBFFF721FB0346C6
:100B0C00012B40F07582184B05221A60184B0022FD
:100B1C001A60194B02221A60194B00221A60FFF757
:100B2C00AFFD174B1B681846FFF73EFD144B1B68B7
:100B3C0002331846FFF738FD124B00221A60FFF7FC
:100B4C00DDFB00220121074800F0ADFF0022082147
:100B5C00044800F0A8FF4FF4FA7000F08DFB47E258
:100B6C00A400002000080140B00000204400002038
:100B7C00900000203C00002094000020AC000020DD
:100B8C009C0000209800002040000020824B1B6835
:100B9C00012B31D100220121804800F084FF012279
:100BAC0002217E4800F07FFF012204217B4800F0E7
:100BBC007AFF01220821794800F075FF01221021EB
:100BCC00764800F070FF00222021744800F06BFF83
:100BDC00734B01221A60734B1B68734A1360734B7F
:100BEC001B68734A1360714B1B684FF47A7202FBDB
:100BFC0003F3184600F040FB6E4B1B68012B24D10D
:100C0C006D4B1B68C3F101036B4A13606A4B1B6885
:100C1C00002B0BD1644B1B68013B634A1360644B84
:100C2C001B68013B624A1360FFF72AFD624B1B688D
:100C3C001846FFF7B9FC604B1B6802331846FFF7E8
:100C4C00B3FC4FF4FA7000F031FBFFF779FA03466E
:100C5C00012B40F0CF81524B05221A60524B0022DF
:100C6C001A60534B02221A60534B00221A60FFF792
:100C7C0007FD514B1B681846FFF796FC4E4B1B6843
:100C8C0002331846FFF790FC4C4B00221A60FFF71A
:100C9C0035FB00220121414800F005FF002208210C
:100CAC003E4800F000FF4FF4FA7000F0E5FAA1E1C5
:100CBC00FFF758FA0346012B06D13B4B1B68013357
:100CCC00394A1360FFF7DCFCFFF75EFA0346012B91
:100CDC0005D13A4B1B68C3F10103384A13602E4B04
:100CEC001B68012B1CD101212C4800F0F4FE0821BB
:100CFC002A4800F0F0FE304B1B68C3F101032E4A6A
:100D0C0013602D4B1B681846FFF74EFC2A4B1B68D3
:100D1C0002331846FFF748FC4FF4FA7000F0ACFAB7
:100D2C00FFF70EFA0346012B40F06681234B1B683C
:100D3C00012B40F061811C4B1B681A4A1360184B45
:100D4C0006221A60184B00221A60194B03221A60F3
:100D5C00194B00221A60FFF793FC174B1B681846BF
:100D6C00FFF722FC144B1B6802331846FFF71CFCE0
:100D7C00124B00221A60FFF7C1FA00220221074829
:100D8C0000F091FE00221021044800F08CFE4FF47C
:100D9C00FA7000F071FA2FE1A40000200008014065
:100DAC00B00000203C0000209000002044000020F7
:100DBC0094000020AC0000209C0000209800002033
:100DCC00FFF7D0F90346012B06D18F4B1B6801337B
:100DDC008D4A1360FFF754FCFFF7D6F90346012B3D
:100DEC0005D18A4B1B68C3F10103884A1360884BF9
:100DFC001B68012B1CD10221864800F06CFE1021CF
:100E0C00844800F068FE844B1B68C3F10103824ADE
:100E1C001360814B1B681846FFF7C6FB7E4B1B68A3
:100E2C0002331846FFF7C0FB4FF4FA7000F024FAB7
:100E3C00FFF786F90346012B40F0E080734B1B68EB
:100E4C00012B40F0DB80704B1B68744A1360744BB1
:100E5C0007221A606C4B00221A60724B04221A6033
:100E6C006D4B00221A60FFF70BFC6B4B1B6818468E
:100E7C00FFF79AFB684B1B6802331846FFF794FB8D
:100E8C00624B00221A60FFF739FA002204216148F4
:100E9C0000F009FE002220215E4800F004FE4FF411
:100EAC00FA7000F0E9F9A9E0FFF75CF90346012BB1
:100EBC0006D1554B1B680133534A1360FFF7E0FB17
:100ECC00FFF762F90346012B05D1504B1B68C3F1A8
:100EDC0001034E4A13604E4B1B68012B1CD104219D
:100EEC004C4800F0F8FD20214A4800F0F4FD4A4B34
:100EFC001B68C3F10103484A1360474B1B68184633
:100F0C00FFF752FB444B1B6802331846FFF74CFBB0
:100F1C004FF4FA7000F0B0F9FFF712F90346012B09
:100F2C006ED13A4B1B68012B6AD1374B1B683E4A7A
:100F3C0013603A4B1A683C4B1B681A443B4B1B68BA
:100F4C009A4206D0354B1A68374B1B681344374A04
:100F5C001360002201212F4800F0A5FD012202217F
:100F6C002C4800F0A0FD012204212A4800F09BFD32
:100F7C0001220821274800F096FD01221021254866
:100F8C0000F091FD00222021224800F08CFD244B22
:100F9C0001221A60254B1B68013B1B4A1360224B34
:100FAC001B68013B1F4A13601B4B00221A60FFF7A2
:100FBC0067FB194B1B681846FFF7F6FA164B1B68B4
:100FCC0002331846FFF7F0FA174B1B684FF47A728E
:100FDC0002FB03F3184600F04FF94FF4FA7000F0DF
:100FEC0065F90DE000BF0CE000BF0AE000BF08E0AF
:100FFC0000BF06E000BF04E000BF02E000BF00E05D
:10100C0000BF00BF80BD00BF9000002098000020F2
:10101C00A4000020000801409C000020400000209B
:10102C00B000002094000020440000203C00002070
:10103C0080B500AF00F036FA00F012F800F098F826
:10104C0000F04AF8044801F08BF9044B00221A60B6
:10105C00FFF756FBFCE700BFB4000020B0000020F7
:10106C0080B590B000AF07F1180328220021184674
:10107C0001F032FD3B1D00221A605A609A60DA6062
:10108C001A610223BB610123BB621023FB620023A4
:10109C007B6307F11803184600F036FD0346002B5E
:1010AC0001D000F0E3F80F237B600023BB6000232A
:1010BC00FB6000233B6100237B613B1D0021184634
:1010CC0000F0A2FF0346002B01D000F0CFF800BFC8
:1010DC004037BD4680BD000080B586B000AF07F13B
:1010EC00080300221A605A609A60DA603B460022BC
:1010FC001A605A601D4B4FF080421A601B4B41F630
:10110C003F725A60194B00229A60184B0922DA6020
:10111C00164B00221A61154B00229A61134801F0FC
:10112C00CFF80346002B01D000F0A0F84FF4805309
:10113C00BB6007F1080319460C4801F065FA034639
:10114C00002B01D000F092F800233B6000237B6061
:10115C003B461946054801F031FC0346002B01D0F3
:10116C0000F084F800BF1837BD4680BDB4000020E5
:10117C0080B588B000AF07F1100300221A605A60E6
:10118C009A60DA602F4B9B692E4A43F010039361EF
:10119C002C4B9B6903F01003FB60FB68294B9B698C
:1011AC00284A43F004039361264B9B6903F0040324
:1011BC00BB60BB68234B9B69224A43F008039361D5
:1011CC00204B9B6903F008037B607B68002241F68F
:1011DC003F611D4800F067FC002243F6FF711B487D
:1011EC0000F061FC4FF460433B6100237B61012301
:1011FC00BB6107F110031946154800F0C3FA41F61C
:10120C003F633B6101237B610023BB610223FB61D4
:10121C0007F1100319460C4800F0B4FA43F6FF73BB
:10122C003B6101237B610023BB610223FB6107F15E
:10123C0010031946054800F0A5FA00BF2037BD463B
:10124C0080BD00BF0010024000080140000C0140AE
:10125C000010014080B582B000AF786000F040F81B
:10126C00FEF7A4FF00BF0837BD4680BD80B400AFB9
:10127C0072B600BFFEE7000080B483B000AF7860A8
:10128C00074B1B687A6892FBF3F3064A1360064B14
:10129C0000221A6000BF0C37BD4680BC704700BFEF
:1012AC0058000020A0000020A400002080B483B0CF
:1012BC0000AF7860074B1B687A6892FBF3F3064A21
:1012CC001360064B00221A6000BF0C37BD4680BC71
:1012DC00704700BF58000020A8000020AC00002080
:1012EC0080B400AF114B1B68002B0BDD0F4B1B6840
:1012FC00013B0E4A13600D4B1B68002B02DC0C4BA0
:10130C0001221A600B4B1B68002B0BDD094B1B6871
:10131C00013B084A1360074B1B68002B02DC064B91
:10132C0001221A6000BFBD4680BC7047A00000209F
:10133C00A4000020A8000020AC00002080B485B0E0
:10134C0000AF154B9B69144A43F001039361124B98
:10135C009B6903F00103BB60BB680F4BDB690E4A52
:10136C0043F08053D3610C4BDB6903F080537B60FB
:10137C007B680A4B5B68FB60FB6823F0E063FB60F7
:10138C00FB6843F08063FB60044AFB68536000BF5A
:10139C001437BD4680BC704700100240000001406D
:1013AC0080B584B000AF78607B681B68B3F1804F68
:1013BC0013D10C4BDB690B4A43F00103D361094B8E
:1013CC00DB6903F00103FB60FB68002200211C2099
:1013DC0000F0A1F91C2000F0BAF900BF1037BD468F
:1013EC0080BD00BF0010024080B400AFFEE780B4A7
:1013FC0000AFFEE780B400AFFEE780B400AFFEE7BD
:10140C0080B400AFFEE780B400AF00BFBD4680BC27
:10141C00704780B400AF00BFBD4680BC704780B43D
:10142C0000AF00BFBD4680BC704780B500AF00F078
:10143C007FF800BF80BD000080B500AF024800F00F
:10144C00DBFF00BF80BD00BFB400002080B400AF44
:10145C0000BFBD4680BC7047FFF7F8FF0B480C4936
:10146C000C4A002302E0D458C4500433C4188C42F4
:10147C00F9D3094A094C002301E013600432A2425B
:10148C00FBD301F005FBFFF7D3FD704700000020F4
:10149C0068000020382B00086800002000010020A4
:1014AC00FEE7000080B500AF084B1B68074A43F00D
:1014BC0010031360032000F023F90F2000F008F84C
:1014CC00FFF73CFF0023184680BD00BF0020024000
:1014DC0080B582B000AF7860124B1A68124B1B7843
:1014EC0019464FF47A73B3FBF1F3B2FBF3F31846DE
:1014FC0000F03BF90346002B01D001230EE07B6882
:10150C000F2B0AD8002279684FF0FF3000F003F956
:10151C00064A7B681360002300E001231846083755
:10152C00BD4680BD5C0000206400002060000020EF
:10153C0080B400AF054B1B781A46054B1B6813444F
:10154C00034A136000BFBD4680BC70476400002096
:10155C00FC00002080B400AF024B1B681846BD464F
:10156C0080BC7047FC00002080B485B000AF786070
:10157C007B6803F00703FB600C4BDB68BB60BA684D
:10158C004FF6FF031340BB60FB681A02BB681343A2
:10159C0043F0BF6343F40033BB60044ABB68D360C1
:1015AC0000BF1437BD4680BC704700BF00ED00E0A3
:1015BC0080B400AF044BDB681B0A03F0070318462A
:1015CC00BD4680BC704700BF00ED00E080B483B026
:1015DC0000AF0346FB7197F90730002B0BDBFB794F
:1015EC0003F01F02064997F907305B09012000FA46
:1015FC0002F241F8232000BF0C37BD4680BC704777
:10160C0000E100E080B483B000AF03463960FB71A9
:10161C0097F90730002B0ADB3B68DAB20C4997F9D3
:10162C0007301201D2B20B4483F800230AE03B6866
:10163C00DAB20849FB7903F00F03043B1201D2B272
:10164C000B441A7600BF0C37BD4680BC704700BFF8
:10165C0000E100E000ED00E080B489B000AFF8607C
:10166C00B9607A60FB6803F00703FB61FB69C3F1A7
:10167C000703042B28BF0423BB61FB690433062B2F
:10168C0002D9FB69033B00E000237B614FF0FF3282
:10169C00BB6902FA03F3DA43BB681A407B699A40D0
:1016AC004FF0FF317B6901FA03F3D9437B680B40A0
:1016BC00134318462437BD4680BC704780B582B0B2
:1016CC0000AF78607B68013BB3F1807F01D30123CD
:1016DC000FE00A4A7B68013B53600F214FF0FF304B
:1016EC00FFF790FF054B00229A60044B07221A600B
:1016FC00002318460837BD4680BD00BF10E000E04F
:10170C0080B582B000AF78607868FFF72DFF00BF1E
:10171C000837BD4680BD80B586B000AF0346B960C2
:10172C007A60FB7300237B61FFF742FF78617A6874
:10173C00B9687869FFF790FF024697F90F301146A8
:10174C001846FFF75FFF00BF1837BD4680BD80B558
:10175C0082B000AF0346FB7197F907301846FFF7CC
:10176C0035FF00BF0837BD4680BD80B582B000AFE5
:10177C0078607868FFF7A2FF034618460837BD4625
:10178C0080BD000080B48BB000AF7860396000235E
:10179C007B6200233B6248E101227B6A02FA03F37D
:1017AC00FB613B681B68FA691340BB61BA69FB6952
:1017BC009A4240F037813B685B68A34A93425ED003
:1017CC00A14A934275D8A14A934258D09F4A93425A
:1017DC006FD89F4A934252D09D4A934269D89D4AF2
:1017EC0093424CD09B4A934263D89B4A934246D037
:1017FC00994A93425DD8122B2AD8122B59D801A2A0
:10180C0052F823F08B1800086518000877180008A8
:10181C00B9180008BF180008BF180008BF18000846
:10182C00BF180008BF180008BF180008BF18000830
:10183C00BF180008BF180008BF180008BF18000820
:10184C00BF180008BF1800086D18000881180008A0
:10185C00824A934213D02CE03B68DB683B6229E060
:10186C003B68DB6804333B6224E03B68DB6808338D
:10187C003B621FE03B68DB680C333B621AE03B6861
:10188C009B68002B02D104233B6213E03B689B68EE
:10189C00012B05D108233B627B68FA691A6109E0C8
:1018AC0008233B627B68FA695A6103E000233B62C0
:1018BC0000E000BFBB69FF2B01D87B6801E07B68AF
:1018CC0004337B61BB69FF2B02D87B6A9B0002E06F
:1018DC007B6A083B9B003B617B691A680F213B6963
:1018EC0001FA03F3DB431A40396A3B6901FA03F34B
:1018FC001A437B691A603B685B6803F08053002BCA
:10190C0000F09080564B9B69554A43F0010393615C
:10191C00534B9B6903F00103BB60BB68514A7B6A64
:10192C009B08023352F82330FB607B6A03F00303FD
:10193C009B000F2202FA03F3DB43FA681340FB60AF
:10194C007B68494A93420DD07B68484A934207D042
:10195C007B68474A934201D1022304E0032302E04F
:10196C00012300E000237A6A02F003029200934004
:10197C00FA681343FB603B497B6A9B080233FA68A5
:10198C0041F823203B685B6803F48013002B06D0DE
:10199C00384B9A683749BB6913438B6006E0354B6B
:1019AC009A68BB69DB43334913408B603B685B68C7
:1019BC0003F40013002B06D02E4BDA682D49BB69BB
:1019CC001343CB6006E02B4BDA68BB69DB43294938
:1019DC001340CB603B685B6803F40033002B06D0EC
:1019EC00244B5A682349BB6913434B6006E0214BD7
:1019FC005A68BB69DB431F4913404B603B685B680B
:101A0C0003F48033002B06D01A4B1A681949BB69B2
:101A1C0013430B6006E0174B1A68BB69DB4315498F
:101A2C0013400B607B6A01337B623B681A687B6AEC
:101A3C0022FA03F3002B7FF4AFAE00BF00BF2C37AC
:101A4C00BD4680BC704700BF000032100000311052
:101A5C0000002210000021100000121000001110D4
:101A6C00001002400000014000080140000C014041
:101A7C00001001400004014080B485B000AF7860D4
:101A8C000B467B807B689A687B881340002B02D0C6
:101A9C000123FB7301E00023FB73FB7B1846143717
:101AAC00BD4680BC704780B483B000AF78600B46F5
:101ABC007B8013467B707B78002B03D07A887B6805
:101ACC001A6103E07B881A047B681A6100BF0C372B
:101ADC00BD4680BC704780B485B000AF78600B46C3
:101AEC007B807B68DB68FB607A88FB6813401A0498
:101AFC00FB68D9437B880B401A437B681A6100BF93
:101B0C001437BD4680BC704780B586B000AF786096
:101B1C007B68002B01D101236CE27B681B6803F00E
:101B2C000103002B00F08780924B5B6803F00C03E1
:101B3C00042B0CD08F4B5B6803F00C03082B12D1D9
:101B4C008C4B5B6803F48033B3F5803F0BD1894B2E
:101B5C001B6803F40033002B6CD07B685B68002B94
:101B6C0068D1012346E27B685B68B3F5803F06D100
:101B7C00804B1B687F4A43F4803313602EE07B68F4
:101B8C005B68002B0CD17B4B1B687A4A23F48033A7
:101B9C001360784B1B68774A23F4802313601DE095
:101BAC007B685B68B3F5A02F0CD1724B1B68714A34
:101BBC0043F4802313606F4B1B686E4A43F48033ED
:101BCC0013600BE06B4B1B686A4A23F48033136081
:101BDC00684B1B68674A23F4802313607B685B683F
:101BEC00002B13D0FFF7B6FC386108E0FFF7B2FC0E
:101BFC0002463B69D31A642B01D90323FAE15D4BEE
:101C0C001B6803F40033002BF0D014E0FFF7A2FCA8
:101C1C00386108E0FFF79EFC02463B69D31A642B3F
:101C2C0001D90323E6E1534B1B6803F40033002B6B
:101C3C00F0D100E000BF7B681B6803F00203002BAF
:101C4C0063D04C4B5B6803F00C03002B0BD0494B5F
:101C5C005B6803F00C03082B1CD1464B5B6803F448
:101C6C008033002B16D1434B1B6803F00203002B6F
:101C7C0005D07B681B69012B01D00123BAE13D4BD8
:101C8C001B6823F0F8027B685B69DB00394913435E
:101C9C000B603AE07B681B69002B20D0364B01228D
:101CAC001A60FFF757FC386108E0FFF753FC024657
:101CBC003B69D31A022B01D903239BE12D4B1B68E3
:101CCC0003F00203002BF0D02A4B1B6823F0F80220
:101CDC007B685B69DB00274913430B6015E0264BDF
:101CEC0000221A60FFF736FC386108E0FFF732FC7F
:101CFC0002463B69D31A022B01D903237AE11D4B0F
:101D0C001B6803F00203002BF0D17B681B6803F007
:101D1C000803002B3AD07B689B69002B19D0174B1A
:101D2C0001221A60FFF716FC386108E0FFF712FC7D
:101D3C0002463B69D31A022B01D903235AE10D4BFE
:101D4C005B6A03F00203002BF0D0012000F09AFA3A
:101D5C001CE00A4B00221A60FFF7FCFB38610FE015
:101D6C00FFF7F8FB02463B69D31A022B08D9032371
:101D7C0040E100BF00100240000042428004424299
:101D8C009E4B5B6A03F00203002BE9D17B681B6856
:101D9C0003F00403002B00F0A6800023FB75974B87
:101DAC00DB6903F08053002B0DD1944BDB69934A14
:101DBC0043F08053D361914BDB6903F08053BB60DC
:101DCC00BB680123FB758E4B1B6803F48073002BDF
:101DDC0018D18B4B1B688A4A43F480731360FFF74E
:101DEC00B9FB386108E0FFF7B5FB02463B69D31A33
:101DFC00642B01D90323FDE0814B1B6803F4807332
:101E0C00002BF0D07B68DB68012B06D17B4B1B6A67
:101E1C007A4A43F0010313622DE07B68DB68002BE8
:101E2C000CD1764B1B6A754A23F001031362734B7A
:101E3C001B6A724A23F0040313621CE07B68DB68A4
:101E4C00052B0CD16D4B1B6A6C4A43F004031362D7
:101E5C006A4B1B6A694A43F0010313620BE0674B40
:101E6C001B6A664A23F001031362644B1B6A634AC4
:101E7C0023F0040313627B68DB68002B15D0FFF79B
:101E8C0069FB38610AE0FFF765FB02463B69D31A30
:101E9C0041F28832934201D90323ABE0574B1B6AC2
:101EAC0003F00203002BEED014E0FFF753FB386174
:101EBC000AE0FFF74FFB02463B69D31A41F2883226
:101ECC00934201D9032395E04C4B1B6A03F00203A8
:101EDC00002BEED1FB7D012B05D1484BDB69474A2A
:101EEC0023F08053D3617B68DB69002B00F0818089
:101EFC00424B5B6803F00C03082B61D07B68DB69F9
:101F0C00022B46D13F4B00221A60FFF723FB3861AE
:101F1C0008E0FFF71FFB02463B69D31A022B01D9DD
:101F2C00032367E0354B1B6803F00073002BF0D1E3
:101F3C007B681B6AB3F5803F08D1304B5B6823F498
:101F4C0000327B689B682D4913434B602B4B5B68BD
:101F5C0023F474127B68196A7B685B6A0B4327490C
:101F6C0013434B60274B01221A60FFF7F3FA3861D9
:101F7C0008E0FFF7EFFA02463B69D31A022B01D9AE
:101F8C00032337E01D4B1B6803F00073002BF0D0CC
:101F9C002FE01C4B00221A60FFF7DCFA386108E0D6
:101FAC00FFF7D8FA02463B69D31A022B01D9032357
:101FBC0020E0124B1B6803F00073002BF0D118E0EB
:101FCC007B68DB69012B01D1012313E00B4B5B68B0
:101FDC00FB60FB6803F480327B681B6A9A4206D173
:101FEC00FB6803F470127B685B6A9A4201D0012390
:101FFC0000E0002318461837BD4680BD0010024093
:10200C00007000406000424280B584B000AF786040
:10201C0039607B68002B01D10123D0E06A4B1B682F
:10202C0003F007033A689A4210D9674B1B6823F0F8
:10203C00070265493B6813430B60634B1B6803F055
:10204C0007033A689A4201D00123B8E07B681B6809
:10205C0003F00203002B20D07B681B6803F0040301
:10206C00002B05D0594B5B68584A43F4E06353602E
:10207C007B681B6803F00803002B05D0534B5B688F
:10208C00524A43F460535360504B5B6823F0F002A8
:10209C007B689B684D4913434B607B681B6803F05E
:1020AC000103002B40D07B685B68012B07D1474BA9
:1020BC001B6803F40033002B15D101237FE07B68F0
:1020CC005B68022B07D1414B1B6803F00073002B9C
:1020DC0009D1012373E03D4B1B6803F00203002B75
:1020EC0001D101236BE0394B5B6823F003027B6861
:1020FC005B68364913434B60FFF72CFAF8600AE033
:10210C00FFF728FA0246FB68D31A41F28832934251
:10211C0001D9032353E02D4B5B6803F00C027B6861
:10212C005B689B009A42EBD1274B1B6803F00703BB
:10213C003A689A4210D2244B1B6823F007022249BA
:10214C003B6813430B60204B1B6803F007033A6892
:10215C009A4201D0012332E07B681B6803F0040330
:10216C00002B08D0194B5B6823F4E0627B68DB68BA
:10217C00164913434B607B681B6803F00803002B64
:10218C0009D0124B5B6823F460527B681B69DB003F
:10219C000E4913434B6000F021F802460B4B5B6871
:1021AC001B0903F00F030A49CB5C22FA03F3094A1B
:1021BC001360094B1B681846FFF78AF90023184671
:1021CC001037BD4680BD00BF002002400010024009
:1021DC000C2B00085C0000206000002080B487B04D
:1021EC0000AF0023FB600023BB6000237B61002356
:1021FC007B6000233B611E4B5B68FB60FB6803F05C
:10220C000C03042B02D0082B03D027E0194B3B61A5
:10221C0027E0FB689B0C03F00F03174AD35C7B6031
:10222C00FB6803F48033002B10D0114B5B685B0C04
:10223C0003F00103114AD35CBB607B680D4A02FBBF
:10224C0003F2BB68B2FBF3F37B6104E07B680C4ADE
:10225C0002FB03F37B617B693B6102E0054B3B6155
:10226C0000BF3B6918461C37BD4680BC704700BF99
:10227C000010024000127A001C2B00082C2B0008C6
:10228C0000093D0080B485B000AF78600A4B1B6834
:10229C000A4AA2FB03235B0A7A6802FB03F3FB6086
:1022AC0000BFFB685A1EFA60002BF9D100BF00BFBB
:1022BC001437BD4680BC70475C000020D34D6210C3
:1022CC0080B582B000AF78607B68002B01D1012310
:1022DC0041E07B6893F83D30DBB2002B06D17B6884
:1022EC00002283F83C207868FFF75AF87B680222BA
:1022FC0083F83D207B681A687B68043319461046C6
:10230C0000F06EFA7B68012283F846207B6801227C
:10231C0083F83E207B68012283F83F207B680122F2
:10232C0083F840207B68012283F841207B680122DE
:10233C0083F842207B68012283F843207B680122CA
:10234C0083F844207B68012283F845207B680122B6
:10235C0083F83D20002318460837BD4680BD000099
:10236C0080B485B000AF78607B6893F83D30DBB209
:10237C00012B01D0012335E07B68022283F83D203C
:10238C007B681B68DA687B681B6842F00102DA60C4
:10239C007B681B68164A934209D07B681B68B3F1B3
:1023AC00804F04D07B681B68124A934211D17B6822
:1023BC001B689B6803F00703FB60FB68062B10D0BF
:1023CC007B681B681A687B681B6842F001021A6004
:1023DC0007E07B681B681A687B681B6842F0010287
:1023EC001A60002318461437BD4680BC704700BFE6
:1023FC00002C01400004004080B582B000AF786032
:10240C007B681B681B6903F00203022B22D17B68DB
:10241C001B68DB6803F00203022B1BD17B681B6873
:10242C006FF002021A617B6801221A777B681B68C5
:10243C009B6903F00303002B03D0786800F0B4F918
:10244C0005E0786800F0A7F9786800F0B6F97B68C9
:10245C0000221A777B681B681B6903F00403042BAA
:10246C0022D17B681B68DB6803F00403042B1BD1AF
:10247C007B681B686FF004021A617B6802221A7772
:10248C007B681B689B6903F44073002B03D078684E
:10249C0000F08AF905E0786800F07DF9786800F0C2
:1024AC008CF97B6800221A777B681B681B6903F028
:1024BC000803082B22D17B681B68DB6803F0080338
:1024CC00082B1BD17B681B686FF008021A617B68B4
:1024DC0004221A777B681B68DB6903F00303002B6B
:1024EC0003D0786800F060F905E0786800F053F9E3
:1024FC00786800F062F97B6800221A777B681B68A9
:10250C001B6903F01003102B22D17B681B68DB685E
:10251C0003F01003102B1BD17B681B686FF01002AB
:10252C001A617B6808221A777B681B68DB6903F4E5
:10253C004073002B03D0786800F036F905E078681A
:10254C0000F029F9786800F038F97B6800221A77D6
:10255C007B681B681B6903F00103012B0ED17B68A0
:10256C001B68DB6803F00103012B07D17B681B6838
:10257C006FF001021A617868FEF76CFE7B681B68CD
:10258C001B6903F08003802B0ED17B681B68DB6812
:10259C0003F08003802B07D17B681B686FF08002EF
:1025AC001A61786800F06BFA7B681B681B6903F092
:1025BC004003402B0ED17B681B68DB6803F04003A3
:1025CC00402B07D17B681B686FF040021A6178685A
:1025DC0000F0FCF87B681B681B6903F02003202BC0
:1025EC000ED17B681B68DB6803F02003202B07D11E
:1025FC007B681B686FF020021A61786800F036FA6D
:10260C0000BF0837BD4680BD80B584B000AF786090
:10261C0039600023FB737B6893F83C30012B01D1AC
:10262C000223B4E07B68012283F83C207B68022201
:10263C0083F83D207B681B689B68BB60BB6823F0FC
:10264C007703BB60BB6823F47F43BB607B681B686C
:10265C00BA689A603B681B68B3F5005F3ED0B3F56F
:10266C00005F00F28780B3F5805F00F08680B3F5E1
:10267C00805F7FD8702B1AD0702B7BD8602B50D0FA
:10268C00602B77D8502B3CD0502B73D8402B58D084
:10269C00402B6FD8302B64D0302B6BD8202B60D0D4
:1026AC00202B67D8002B5CD0102B5AD062E07B68B3
:1026BC0018683B6899683B685A683B68DB6800F0AF
:1026CC005EF97B681B689B68BB60BB6843F0770353
:1026DC00BB607B681B68BA689A604FE07B681868BF
:1026EC003B6899683B685A683B68DB6800F047F9BF
:1026FC007B681B689A687B681B6842F480429A600E
:10270C003CE07B6818683B6859683B68DB681A4694
:10271C0000F0BEF87B681B685021184600F015F9D4
:10272C002CE07B6818683B6859683B68DB681A4684
:10273C0000F0DCF87B681B686021184600F005F996
:10274C001CE07B6818683B6859683B68DB681A4674
:10275C0000F09EF87B681B684021184600F0F5F8E5
:10276C000CE07B681A683B681B681946104600F041
:10277C00ECF803E00123FB7300E000BF7B6801224F
:10278C0083F83D207B68002283F83C20FB7B1846B5
:10279C001037BD4680BD80B483B000AF786000BFF9
:1027AC000C37BD4680BC704780B483B000AF7860F6
:1027BC0000BF0C37BD4680BC704780B483B000AFFF
:1027CC00786000BF0C37BD4680BC704780B483B0C6
:1027DC0000AF786000BF0C37BD4680BC704700006E
:1027EC0080B485B000AF786039607B681B68FB6093
:1027FC007B68254A934207D07B68B3F1804F03D0A6
:10280C007B68224A934208D1FB6823F07003FB607B
:10281C003B685B68FA681343FB607B681A4A934217
:10282C0007D07B68B3F1804F03D07B68174A934283
:10283C0008D1FB6823F44073FB603B68DB68FA68E3
:10284C001343FB60FB6823F080023B685B69134316
:10285C00FB607B68FA681A603B689A687B68DA628E
:10286C003B681A687B689A627B68074A934203D17B
:10287C003B681A697B681A637B6801225A6100BF46
:10288C001437BD4680BC7047002C0140000400404A
:10289C0080B487B000AFF860B9607A60FB681B6ADF
:1028AC007B61FB681B6A23F00102FB681A62FB6800
:1028BC009B693B613B6923F0F0033B617B681B0127
:1028CC003A6913433B617B6923F00A037B617A69A4
:1028DC00BB6813437B61FB683A699A61FB687A6950
:1028EC001A6200BF1C37BD4680BC704780B487B0ED
:1028FC0000AFF860B9607A60FB681B6A7B61FB68AB
:10290C001B6A23F01002FB681A62FB689B693B612F
:10291C003B6923F470433B617B681B033A691343A7
:10292C003B617B6923F0A0037B61BB681B017A6967
:10293C0013437B61FB683A699A61FB687A691A6296
:10294C0000BF1C37BD4680BC704780B485B000AF5B
:10295C00786039607B689B68FB60FB6823F07003D0
:10296C00FB603A68FB68134343F00703FB607B682A
:10297C00FA689A6000BF1437BD4680BC704780B4BB
:10298C0087B000AFF860B9607A603B60FB689B6809
:10299C007B617B6923F47F437B613B681A027B6814
:1029AC001A43BB6813437A6913437B61FB687A69EA
:1029BC009A6000BF1C37BD4680BC704780B485B0A0
:1029CC0000AF786039607B6893F83C30012B01D103
:1029DC00022341E07B68012283F83C207B680222C1
:1029EC0083F83D207B681B685B68FB607B681B6819
:1029FC009B68BB60FB6823F07003FB603B681B6843
:102A0C00FA681343FB607B681B68FA685A607B6842
:102A1C001B68144A934209D07B681B68B3F1804F42
:102A2C0004D07B681B68104A93420CD1BB6823F01E
:102A3C008003BB603B685B68BA681343BB607B6810
:102A4C001B68BA689A607B68012283F83D207B681A
:102A5C00002283F83C20002318461437BD4680BC66
:102A6C00704700BF002C01400004004080B483B0CC
:102A7C0000AF786000BF0C37BD4680BC704780B497
:102A8C0083B000AF786000BF0C37BD4680BC704788
:102A9C0070B500260C4D0D4C641BA410A64209D138
:102AAC0000F022F800260A4D0A4C641BA410A64222
:102ABC0005D170BD55F8043B98470136EEE755F843
:102ACC00043B98470136F2E7302B0008302B000806
:102ADC00302B0008342B000803460244934200D1EB
:102AEC00704703F8011BF9E7F8B500BFF8BC08BC48
:102AFC009E467047F8B500BFF8BC08BC9E467047B0
:102B0C000000000000000000010203040607080991
:102B1C0002030405060708090A0B0C0D0E0F101012
:042B2C0001020000A2
:042B30003101000867
:042B34000D01000887
:102B38000100000001000000010000000100000089
:102B48000100000001000000010000000100000079
:102B58000100000001000000010000000100000069
:102B6800C8000000C8000000C800000006000000FF
:102B78000300000003000000010000000200000044
:102B880003000000040000000A0000000024F40014
:082B9800100000000100000024
:040000050800146576
:00000001FF
