:020000040800F2
:1000000000280020950E0008250E00082B0E000881
:10001000310E0008370E00083D0E000800000000F9
:10002000000000000000000000000000430E000877
:100030004F0E0008000000005B0E0008670E00086D
:10004000DD0E0008DD0E0008DD0E0008DD0E0008E4
:10005000DD0E0008DD0E0008DD0E0008DD0E0008D4
:10006000DD0E0008DD0E0008DD0E0008DD0E0008C4
:10007000DD0E0008DD0E0008DD0E0008DD0E0008B4
:10008000DD0E0008DD0E0008DD0E0008DD0E0008A4
:10009000DD0E0008DD0E0008DD0E0008DD0E000894
:1000A000DD0E0008DD0E0008DD0E0008DD0E000884
:1000B000750E0008DD0E000800000000DD0E0008CF
:1000C000DD0E00080000000000000000DD0E00084A
:1000D00000000000DD0E0008DD0E0008000000003A
:1000E000DD0E0008DD0E0008DD0E00080000000037
:1000F0000000000000000000000000000000000000
:0C01000000000000000000005FF808F1A3
:10010C0010B5054C237833B9044B13B10448AFF345
:10011C0000800123237010BD680000200000000047
:10012C00F424000808B5034B1BB103490348AFF393
:10013C00008008BD000000006C000020F4240008C2
:10014C0080B582B000AF4A4B1B684A4A13604A4BD9
:10015C001B68474A13604021484801F0A5F9034643
:10016C001A46454B1A60424B5B68424A5360424BFD
:10017C005B683F4A53608021404801F095F9034683
:10018C001A463D4B5A603A4B9B683A4A93603A4B3D
:10019C009B68374A93604FF48071384801F084F9BA
:1001AC0003461A46344B9A6000237B6058E0324A6F
:1001BC007B6852F823202E497B6851F823309A42F1
:1001CC004BD12B4A7B6852F823202A497B6851F883
:1001DC0023309A4241D12A4A7B6852F82320254980
:1001EC007B6851F823309A4218D0224A7B6852F827
:1001FC00232023497B6841F82320214A7B6852F84D
:10020C002330002B29D11F4A7B68012142F823108F
:10021C001D4A7B68C82142F823101EE01A4A7B68ED
:10022C0052F823305A1E18497B6841F82320164A8D
:10023C007B6852F82330002B0FD1134A7B68C821FE
:10024C0042F823100E4A7B6852F82330002B04D15D
:10025C000C4A7B68012142F823107B6801337B60D8
:10026C007B68022BA3DD00BF00BF0837BD4680BDF5
:10027C000C000020180000200000002000080140A5
:10028C0024000020840000203000002080B582B0C3
:10029C0000AF78607B68092B7FD801A252F823F05D
:1002AC00D5020008EB020008010300081703000840
:1002BC002D03000843030008590300086F030008CE
:1002CC00850300089103000800223F21354801F006
:1002DC0002F901224021334801F0FDF85EE00022D2
:1002EC000621304801F0F7F8012279212D4801F060
:1002FC00F2F853E000225B212A4801F0ECF80122CD
:10030C002421284801F0E7F848E000224F21254835
:10031C0001F0E1F801223021224801F0DCF83DE047
:10032C00002266211F4801F0D6F8012219211D4830
:10033C0001F0D1F832E000226D211A4801F0CBF81F
:10034C0001221221174801F0C6F827E000227D2176
:10035C00144801F0C0F801220221124801F0BBF848
:10036C001CE0002207210F4801F0B5F8012278218A
:10037C000C4801F0B0F811E000227F21094801F08F
:10038C00AAF80BE000226F21064801F0A4F8012224
:10039C001021044801F09FF800E000BF00BF0837AF
:1003AC00BD4680BD000C014080B582B000AF7860C6
:1003BC007B68092B00F2948001A252F823F000BF55
:1003CC00F50300080F040008290400084304000882
:1003DC005D0400087704000891040008AB040008D1
:1003EC00C5040008D304000800224FF4FC513F4818
:1003FC0001F071F801224FF400513C4801F06BF808
:10040C006FE000224FF44071384801F064F801228B
:10041C004FF47251354801F05EF862E000224FF45F
:10042C003651324801F057F801224FF490512F48C1
:10043C0001F051F855E000224FF41E512B4801F009
:10044C004AF801224FF4C051284801F044F848E022
:10045C0000224FF44C51254801F03DF801224FF495
:10046C004861224801F037F83BE000224FF45A5122
:10047C001E4801F030F801224FF410611B4801F0C6
:10048C002AF82EE000224FF47A51184801F023F894
:10049C0001224FF48071154801F01DF821E0002273
:1004AC004FF46071114801F016F801224FF47051AD
:1004BC000E4801F010F814E000224FF47E510B4866
:1004CC0001F009F80DE000224FF45E51074801F0ED
:1004DC0002F801224FF40061044800F0FCFF00E038
:1004EC0000BF00BF0837BD4680BD00BF000C0140F7
:1004FC0080B582B000AF78607B68032B5AD801A21C
:10050C0052F823F021050008490500087105000880
:10051C00990500082A4A7B6852F823301846FFF7E1
:10052C00B5FE00224FF40071264800F0D4FF0122E2
:10053C004FF48061234800F0CEFF3CE0204A7B68FA
:10054C0052F823301846FFF7A1FE01224FF4007138
:10055C001C4800F0C0FF00224FF48061194800F0E5
:10056C00BAFF28E0164A7B6852F823301846FFF78A
:10057C001BFF00224FF40061124800F0ACFF012277
:10058C004FF480510F4800F0A6FF14E00C4A7B6832
:10059C0052F823301846FFF707FF01224FF4006191
:1005AC00084800F098FF00224FF48051054800F0F5
:1005BC0092FF00E000BF00BF0837BD4680BD00BF02
:1005CC00480000200008014080B400AF1A4B1B68A3
:1005DC001A4A82FB03129210DB17D31A184A1360C3
:1005EC00154B1968154B83FB01239A10CB17D21AA4
:1005FC0013469B0013445B00CA1A114B5A60114BF3
:10060C001B680E4A82FB03129210DB17D31A0C4A9A
:10061C0093600C4B1968094B83FB01239A10CB1781
:10062C00D21A13469B0013445B00CA1A044BDA60BF
:10063C0000BFBD4680BC70479000002067666666B0
:10064C00480000209400002080B500AF914B1B683F
:10065C00072B00F2F48101A252F823F0890600085E
:10066C001B070008DD070008C90800088B090008F3
:10067C004B0A00084B0A00084B0A00080022012113
:10068C00854800F028FF01220221834800F023FF57
:10069C0001220421804800F01EFF012208217E481F
:1006AC0000F019FF012210217B4800F014FF0022FA
:1006BC002021794800F00FFF764B01221A60774B0E
:1006CC001B68013B764A1360764B1B68013B764AEC
:1006DC001360764B00221A60FFF776FF734B1B6892
:1006EC001846FFF705FF714B1B6802331846FFF7DE
:1006FC00FFFE6C4B1B684FF47A7202FB03F3184637
:10070C0000F0D2FA4FF4FA7000F0E8FAA0E1684B6E
:10071C001B68012B31D1002201215F4800F0DBFE68
:10072C00012202215C4800F0D6FE012204215A4825
:10073C0000F0D1FE01220821574800F0CCFE002227
:10074C001021554800F0C7FE01222021524800F02C
:10075C00C2FE504B02221A60564B1B68504A136063
:10076C00544B1B68504A1360524B1B684FF47A72FF
:10077C0002FB03F3184600F097FA4F4B1B68012B52
:10078C0040F05F81494B1B68C3F10103474A13607A
:10079C00464B1B68002B0BD1414B1B68013B404A5D
:1007AC001360414B1B68013B3F4A1360FFF70CFF82
:1007BC003E4B1B681846FFF79BFE3C4B1B680233F5
:1007CC001846FFF795FE4FF4FA7000F087FA38E1FF
:1007DC00374B1B68012B31D1012201212E4800F02F
:1007EC007AFE012202212C4800F075FE0022042121
:1007FC00294800F070FE00220821274800F06BFE0B
:10080C0001221021244800F066FE012220212248FA
:10081C0000F061FE1F4B03221A60224B1B68204A1A
:10082C0013601E4B1B68204A13601E4B1B684FF451
:10083C007A7202FB03F3184600F036FA1E4B1B6863
:10084C00012B40F00081194B1B68C3F10103174ABF
:10085C001360164B1B68002B0BD1114B1B68013B13
:10086C000F4A1360104B1B68013B0F4A1360FFF7D4
:10087C00ABFE0E4B1B681846FFF73AFE0B4B1B6882
:10088C0002331846FFF734FE4FF4FA7000F026FAE4
:10089C00D9E000BFAC000020000801403C00002063
:1008AC0090000020440000209400002098000020BC
:1008BC00A000002040000020A8000020654B1B6811
:1008CC00012B31D101220121634800F004FE0022EA
:1008DC000221614800F0FFFD012204215E4800F076
:1008EC00FAFD002208215C4800F0F5FD01221021E0
:1008FC00594800F0F0FD01222021574800F0EBFD93
:10090C00564B04221A60564B1B68564A1360544BC4
:10091C001B68554A1360524B1B684FF47A7202FBEA
:10092C0003F3184600F0C0F9504B1B68012B40F044
:10093C008C804F4B1B68C3F101034D4A13604C4B29
:10094C001B68002B0BD1474B1B68013B454A1360BE
:10095C00454B1B68013B444A1360FFF735FE444B83
:10096C001B681846FFF7C4FD414B1B680233184641
:10097C00FFF7BEFD4FF4FA7000F0B0F965E0354BAF
:10098C001B68012B31D100220121334800F0A3FD5B
:10099C0001220221304800F09EFD012204212E4844
:1009AC0000F099FD012208212B4800F094FD012252
:1009BC001021294800F08FFD00222021264800F04C
:1009CC008AFD264B01221A602A4B1B68254A1360AC
:1009DC00294B1B68244A1360274B1B684FF47A720F
:1009EC0002FB03F3184600F05FF9204B1B68012B48
:1009FC002DD11F4B1B68C3F101031D4A13601C4B07
:100A0C001B68002B0BD1174B1B68013B154A13605D
:100A1C00154B1B68013B144A1360FFF7D5FD144BB3
:100A2C001B681846FFF764FD114B1B680233184610
:100A3C00FFF75EFD4FF4FA7000F050F907E000BFCD
:100A4C0006E000BF04E000BF02E000BF00E000BF12
:100A5C0000BF80BDA000002000080140AC000020B9
:100A6C00400000209000002094000020A8000020EE
:100A7C00980000203C0000204400002080B500AF0E
:100A8C0000F028FA00F012F800F098F800F04AF89C
:100A9C00044801F065F9044B00221A60FFF7D4FDFD
:100AAC00FCE700BFB0000020AC00002080B590B087
:100ABC0000AF07F1180328220021184601F00CFDA5
:100ACC003B1D00221A605A609A60DA601A61022398
:100ADC00BB610123BB621023FB6200237B6307F124
:100AEC001803184600F010FD0346002B01D000F04F
:100AFC00D5F80F237B600023BB600023FB60002331
:100B0C003B6100237B613B1D0021184600F07CFFFC
:100B1C000346002B01D000F0C1F800BF4037BD46A2
:100B2C0080BD000080B586B000AF07F1080300223D
:100B3C001A605A609A60DA603B4600221A605A606A
:100B4C001D4B4FF080421A601B4B41F63F725A60AE
:100B5C00194B00229A60184B0922DA60164B0022BE
:100B6C001A61154B00229A61134801F0A9F803464B
:100B7C00002B01D000F092F84FF48053BB6007F1CA
:100B8C00080319460C4801F03FFA0346002B01D02C
:100B9C0000F084F800233B6000237B603B46194641
:100BAC00054801F00BFC0346002B01D000F076F851
:100BBC0000BF1837BD4680BDB000002080B586B0A0
:100BCC0000AF07F1080300221A605A609A60DA60DD
:100BDC00294B9B69284A43F004039361264B9B697C
:100BEC0003F004037B607B68234B9B69224A43F030
:100BFC0008039361204B9B6903F008033B603B683F
:100C0C00002241F63F611D4800F065FC002243F6CE
:100C1C00FF711B4800F05FFC41F63F63BB60012392
:100C2C00FB6000233B6102237B6107F1080319463B
:100C3C00124800F0BFFA4FF4E073BB600023FB6076
:100C4C0001233B6107F1080319460C4800F0B2FA86
:100C5C0043F6FF73BB600123FB6000233B6102235F
:100C6C007B6107F108031946054800F0A3FA00BFA1
:100C7C001837BD4680BD00BF00100240000801407F
:100C8C00000C014080B582B000AF786000F040F8F5
:100C9C00FFF756FA00BF0837BD4680BD80B400AFE1
:100CAC0072B600BFFEE7000080B483B000AF78607E
:100CBC00074B1B687A6892FBF3F3064A1360064BEA
:100CCC0000221A6000BF0C37BD4680BC704700BFC5
:100CDC00580000209C000020A000002080B483B0AD
:100CEC0000AF7860074B1B687A6892FBF3F3064AF7
:100CFC001360064B00221A6000BF0C37BD4680BC47
:100D0C00704700BF58000020A4000020A80000205D
:100D1C0080B400AF114B1B68002B0BDD0F4B1B6815
:100D2C00013B0E4A13600D4B1B68002B02DC0C4B75
:100D3C0001221A600B4B1B68002B0BDD094B1B6847
:100D4C00013B084A1360074B1B68002B02DC064B67
:100D5C0001221A6000BFBD4680BC70479C00002079
:100D6C00A0000020A4000020A800002080B485B0C2
:100D7C0000AF154B9B69144A43F001039361124B6E
:100D8C009B6903F00103BB60BB680F4BDB690E4A28
:100D9C0043F08053D3610C4BDB6903F080537B60D1
:100DAC007B680A4B5B68FB60FB6823F0E063FB60CD
:100DBC00FB6843F08063FB60044AFB68536000BF30
:100DCC001437BD4680BC7047001002400000014043
:100DDC0080B584B000AF78607B681B68B3F1804F3E
:100DEC0013D10C4BDB690B4A43F00103D361094B64
:100DFC00DB6903F00103FB60FB68002200211C206F
:100E0C0000F0A1F91C2000F0BAF900BF1037BD4664
:100E1C0080BD00BF0010024080B400AFFEE780B47C
:100E2C0000AFFEE780B400AFFEE780B400AFFEE792
:100E3C0080B400AFFEE780B400AF00BFBD4680BCFD
:100E4C00704780B400AF00BFBD4680BC704780B413
:100E5C0000AF00BFBD4680BC704780B500AF00F04E
:100E6C007FF800BF80BD000080B500AF024800F0E5
:100E7C00C3FF00BF80BD00BFB000002080B400AF36
:100E8C0000BFBD4680BC7047FFF7F8FF0B480C490C
:100E9C000C4A002302E0D458C4500433C4188C42CA
:100EAC00F9D3094A094C002301E013600432A24231
:100EBC00FBD301F0EDFAFFF7E1FD704700000020D5
:100ECC00680000203825000868000020FC00002085
:100EDC00FEE7000080B500AF084B1B68074A43F0E3
:100EEC0010031360032000F023F90F2000F008F822
:100EFC00FFF73CFF0023184680BD00BF00200240D6
:100F0C0080B582B000AF7860124B1A68124B1B7818
:100F1C0019464FF47A73B3FBF1F3B2FBF3F31846B3
:100F2C0000F03BF90346002B01D001230EE07B6857
:100F3C000F2B0AD8002279684FF0FF3000F003F92C
:100F4C00064A7B681360002300E00123184608372B
:100F5C00BD4680BD5C0000206400002060000020C5
:100F6C0080B400AF054B1B781A46054B1B68134425
:100F7C00034A136000BFBD4680BC7047640000206C
:100F8C00F800002080B400AF024B1B681846BD4629
:100F9C0080BC7047F800002080B485B000AF78604A
:100FAC007B6803F00703FB600C4BDB68BB60BA6823
:100FBC004FF6FF031340BB60FB681A02BB68134378
:100FCC0043F0BF6343F40033BB60044ABB68D36097
:100FDC0000BF1437BD4680BC704700BF00ED00E079
:100FEC0080B400AF044BDB681B0A03F00703184600
:100FFC00BD4680BC704700BF00ED00E080B483B0FC
:10100C0000AF0346FB7197F90730002B0BDBFB7924
:10101C0003F01F02064997F907305B09012000FA1B
:10102C0002F241F8232000BF0C37BD4680BC70474C
:10103C0000E100E080B483B000AF03463960FB717F
:10104C0097F90730002B0ADB3B68DAB20C4997F9A9
:10105C0007301201D2B20B4483F800230AE03B683C
:10106C00DAB20849FB7903F00F03043B1201D2B248
:10107C000B441A7600BF0C37BD4680BC704700BFCE
:10108C0000E100E000ED00E080B489B000AFF86052
:10109C00B9607A60FB6803F00703FB61FB69C3F17D
:1010AC000703042B28BF0423BB61FB690433062B05
:1010BC0002D9FB69033B00E000237B614FF0FF3258
:1010CC00BB6902FA03F3DA43BB681A407B699A40A6
:1010DC004FF0FF317B6901FA03F3D9437B680B4076
:1010EC00134318462437BD4680BC704780B582B088
:1010FC0000AF78607B68013BB3F1807F01D30123A3
:10110C000FE00A4A7B68013B53600F214FF0FF3020
:10111C00FFF790FF054B00229A60044B07221A60E0
:10112C00002318460837BD4680BD00BF10E000E024
:10113C0080B582B000AF78607868FFF72DFF00BFF4
:10114C000837BD4680BD80B586B000AF0346B96098
:10115C007A60FB7300237B61FFF742FF78617A684A
:10116C00B9687869FFF790FF024697F90F3011467E
:10117C001846FFF75FFF00BF1837BD4680BD80B52E
:10118C0082B000AF0346FB7197F907301846FFF7A2
:10119C0035FF00BF0837BD4680BD80B582B000AFBB
:1011AC0078607868FFF7A2FF034618460837BD46FB
:1011BC0080BD000080B48BB000AF78603960002334
:1011CC007B6200233B6248E101227B6A02FA03F353
:1011DC00FB613B681B68FA691340BB61BA69FB6928
:1011EC009A4240F037813B685B68A34A93425ED0D9
:1011FC00A14A934275D8A14A934258D09F4A934230
:10120C006FD89F4A934252D09D4A934269D89D4AC7
:10121C0093424CD09B4A934263D89B4A934246D00C
:10122C00994A93425DD8122B2AD8122B59D801A275
:10123C0052F823F0BB12000895120008A712000800
:10124C00E9120008EF120008EF120008EF12000874
:10125C00EF120008EF120008EF120008EF1200085E
:10126C00EF120008EF120008EF120008EF1200084E
:10127C00EF120008EF1200089D120008B1120008CE
:10128C00824A934213D02CE03B68DB683B6229E036
:10129C003B68DB6804333B6224E03B68DB68083363
:1012AC003B621FE03B68DB680C333B621AE03B6837
:1012BC009B68002B02D104233B6213E03B689B68C4
:1012CC00012B05D108233B627B68FA691A6109E09E
:1012DC0008233B627B68FA695A6103E000233B6296
:1012EC0000E000BFBB69FF2B01D87B6801E07B6885
:1012FC0004337B61BB69FF2B02D87B6A9B0002E045
:10130C007B6A083B9B003B617B691A680F213B6938
:10131C0001FA03F3DB431A40396A3B6901FA03F320
:10132C001A437B691A603B685B6803F08053002B9F
:10133C0000F09080564B9B69554A43F00103936132
:10134C00534B9B6903F00103BB60BB68514A7B6A3A
:10135C009B08023352F82330FB607B6A03F00303D3
:10136C009B000F2202FA03F3DB43FA681340FB6085
:10137C007B68494A93420DD07B68484A934207D018
:10138C007B68474A934201D1022304E0032302E025
:10139C00012300E000237A6A02F0030292009340DA
:1013AC00FA681343FB603B497B6A9B080233FA687B
:1013BC0041F823203B685B6803F48013002B06D0B4
:1013CC00384B9A683749BB6913438B6006E0354B41
:1013DC009A68BB69DB43334913408B603B685B689D
:1013EC0003F40013002B06D02E4BDA682D49BB6991
:1013FC001343CB6006E02B4BDA68BB69DB4329490E
:10140C001340CB603B685B6803F40033002B06D0C1
:10141C00244B5A682349BB6913434B6006E0214BAC
:10142C005A68BB69DB431F4913404B603B685B68E0
:10143C0003F48033002B06D01A4B1A681949BB6988
:10144C0013430B6006E0174B1A68BB69DB43154965
:10145C0013400B607B6A01337B623B681A687B6AC2
:10146C0022FA03F3002B7FF4AFAE00BF00BF2C3782
:10147C00BD4680BC704700BF000032100000311028
:10148C0000002210000021100000121000001110AA
:10149C00001002400000014000080140000C014017
:1014AC00001001400004014080B485B000AF7860AA
:1014BC000B467B807B689A687B881340002B02D09C
:1014CC000123FB7301E00023FB73FB7B18461437ED
:1014DC00BD4680BC704780B483B000AF78600B46CB
:1014EC007B8013467B707B78002B03D07A887B68DB
:1014FC001A6103E07B881A047B681A6100BF0C3701
:10150C00BD4680BC7047000080B586B000AF7860E7
:10151C007B68002B01D101236CE27B681B6803F014
:10152C000103002B00F08780924B5B6803F00C03E7
:10153C00042B0CD08F4B5B6803F00C03082B12D1DF
:10154C008C4B5B6803F48033B3F5803F0BD1894B34
:10155C001B6803F40033002B6CD07B685B68002B9A
:10156C0068D1012346E27B685B68B3F5803F06D106
:10157C00804B1B687F4A43F4803313602EE07B68FA
:10158C005B68002B0CD17B4B1B687A4A23F48033AD
:10159C001360784B1B68774A23F4802313601DE09B
:1015AC007B685B68B3F5A02F0CD1724B1B68714A3A
:1015BC0043F4802313606F4B1B686E4A43F48033F3
:1015CC0013600BE06B4B1B686A4A23F48033136087
:1015DC00684B1B68674A23F4802313607B685B6845
:1015EC00002B13D0FFF7CEFC386108E0FFF7CAFCE4
:1015FC0002463B69D31A642B01D90323FAE15D4BF4
:10160C001B6803F40033002BF0D014E0FFF7BAFC96
:10161C00386108E0FFF7B6FC02463B69D31A642B2D
:10162C0001D90323E6E1534B1B6803F40033002B71
:10163C00F0D100E000BF7B681B6803F00203002BB5
:10164C0063D04C4B5B6803F00C03002B0BD0494B65
:10165C005B6803F00C03082B1CD1464B5B6803F44E
:10166C008033002B16D1434B1B6803F00203002B75
:10167C0005D07B681B69012B01D00123BAE13D4BDE
:10168C001B6823F0F8027B685B69DB003949134364
:10169C000B603AE07B681B69002B20D0364B012293
:1016AC001A60FFF76FFC386108E0FFF76BFC02462D
:1016BC003B69D31A022B01D903239BE12D4B1B68E9
:1016CC0003F00203002BF0D02A4B1B6823F0F80226
:1016DC007B685B69DB00274913430B6015E0264BE5
:1016EC0000221A60FFF74EFC386108E0FFF74AFC55
:1016FC0002463B69D31A022B01D903237AE11D4B15
:10170C001B6803F00203002BF0D17B681B6803F00D
:10171C000803002B3AD07B689B69002B19D0174B20
:10172C0001221A60FFF72EFC386108E0FFF72AFC53
:10173C0002463B69D31A022B01D903235AE10D4B04
:10174C005B6A03F00203002BF0D0012000F09AFA40
:10175C001CE00A4B00221A60FFF714FC38610FE002
:10176C00FFF710FC02463B69D31A022B08D903235E
:10177C0040E100BF0010024000004242800442429F
:10178C009E4B5B6A03F00203002BE9D17B681B685C
:10179C0003F00403002B00F0A6800023FB75974B8D
:1017AC00DB6903F08053002B0DD1944BDB69934A1A
:1017BC0043F08053D361914BDB6903F08053BB60E2
:1017CC00BB680123FB758E4B1B6803F48073002BE5
:1017DC0018D18B4B1B688A4A43F480731360FFF754
:1017EC00D1FB386108E0FFF7CDFB02463B69D31A09
:1017FC00642B01D90323FDE0814B1B6803F4807338
:10180C00002BF0D07B68DB68012B06D17B4B1B6A6D
:10181C007A4A43F0010313622DE07B68DB68002BEE
:10182C000CD1764B1B6A754A23F001031362734B80
:10183C001B6A724A23F0040313621CE07B68DB68AA
:10184C00052B0CD16D4B1B6A6C4A43F004031362DD
:10185C006A4B1B6A694A43F0010313620BE0674B46
:10186C001B6A664A23F001031362644B1B6A634ACA
:10187C0023F0040313627B68DB68002B15D0FFF7A1
:10188C0081FB38610AE0FFF77DFB02463B69D31A06
:10189C0041F28832934201D90323ABE0574B1B6AC8
:1018AC0003F00203002BEED014E0FFF76BFB386162
:1018BC000AE0FFF767FB02463B69D31A41F2883214
:1018CC00934201D9032395E04C4B1B6A03F00203AE
:1018DC00002BEED1FB7D012B05D1484BDB69474A30
:1018EC0023F08053D3617B68DB69002B00F081808F
:1018FC00424B5B6803F00C03082B61D07B68DB69FF
:10190C00022B46D13F4B00221A60FFF73BFB38619C
:10191C0008E0FFF737FB02463B69D31A022B01D9CB
:10192C00032367E0354B1B6803F00073002BF0D1E9
:10193C007B681B6AB3F5803F08D1304B5B6823F49E
:10194C0000327B689B682D4913434B602B4B5B68C3
:10195C0023F474127B68196A7B685B6A0B43274912
:10196C0013434B60274B01221A60FFF70BFB3861C6
:10197C0008E0FFF707FB02463B69D31A022B01D99B
:10198C00032337E01D4B1B6803F00073002BF0D0D2
:10199C002FE01C4B00221A60FFF7F4FA386108E0C4
:1019AC00FFF7F0FA02463B69D31A022B01D9032345
:1019BC0020E0124B1B6803F00073002BF0D118E0F1
:1019CC007B68DB69012B01D1012313E00B4B5B68B6
:1019DC00FB60FB6803F480327B681B6A9A4206D179
:1019EC00FB6803F470127B685B6A9A4201D0012396
:1019FC0000E0002318461837BD4680BD0010024099
:101A0C00007000406000424280B584B000AF786046
:101A1C0039607B68002B01D10123D0E06A4B1B6835
:101A2C0003F007033A689A4210D9674B1B6823F0FE
:101A3C00070265493B6813430B60634B1B6803F05B
:101A4C0007033A689A4201D00123B8E07B681B680F
:101A5C0003F00203002B20D07B681B6803F0040307
:101A6C00002B05D0594B5B68584A43F4E063536034
:101A7C007B681B6803F00803002B05D0534B5B6895
:101A8C00524A43F460535360504B5B6823F0F002AE
:101A9C007B689B684D4913434B607B681B6803F064
:101AAC000103002B40D07B685B68012B07D1474BAF
:101ABC001B6803F40033002B15D101237FE07B68F6
:101ACC005B68022B07D1414B1B6803F00073002BA2
:101ADC0009D1012373E03D4B1B6803F00203002B7B
:101AEC0001D101236BE0394B5B6823F003027B6867
:101AFC005B68364913434B60FFF744FAF8600AE021
:101B0C00FFF740FA0246FB68D31A41F2883293423F
:101B1C0001D9032353E02D4B5B6803F00C027B6867
:101B2C005B689B009A42EBD1274B1B6803F00703C1
:101B3C003A689A4210D2244B1B6823F007022249C0
:101B4C003B6813430B60204B1B6803F007033A6898
:101B5C009A4201D0012332E07B681B6803F0040336
:101B6C00002B08D0194B5B6823F4E0627B68DB68C0
:101B7C00164913434B607B681B6803F00803002B6A
:101B8C0009D0124B5B6823F460527B681B69DB0045
:101B9C000E4913434B6000F021F802460B4B5B6877
:101BAC001B0903F00F030A49CB5C22FA03F3094A21
:101BBC001360094B1B681846FFF7A2F9002318465F
:101BCC001037BD4680BD00BF00200240001002400F
:101BDC000C2500085C0000206000002080B487B059
:101BEC0000AF0023FB600023BB6000237B6100235C
:101BFC007B6000233B611E4B5B68FB60FB6803F062
:101C0C000C03042B02D0082B03D027E0194B3B61AB
:101C1C0027E0FB689B0C03F00F03174AD35C7B6037
:101C2C00FB6803F48033002B10D0114B5B685B0C0A
:101C3C0003F00103114AD35CBB607B680D4A02FBC5
:101C4C0003F2BB68B2FBF3F37B6104E07B680C4AE4
:101C5C0002FB03F37B617B693B6102E0054B3B615B
:101C6C0000BF3B6918461C37BD4680BC704700BF9F
:101C7C000010024000127A001C2500082C250008D8
:101C8C0000093D0080B485B000AF78600A4B1B683A
:101C9C000A4AA2FB03235B0A7A6802FB03F3FB608C
:101CAC0000BFFB685A1EFA60002BF9D100BF00BFC1
:101CBC001437BD4680BC70475C000020D34D6210C9
:101CCC0080B582B000AF78607B68002B01D1012316
:101CDC0041E07B6893F83D30DBB2002B06D17B688A
:101CEC00002283F83C207868FFF772F87B680222A8
:101CFC0083F83D207B681A687B68043319461046CC
:101D0C0000F06EFA7B68012283F846207B68012282
:101D1C0083F83E207B68012283F83F207B680122F8
:101D2C0083F840207B68012283F841207B680122E4
:101D3C0083F842207B68012283F843207B680122D0
:101D4C0083F844207B68012283F845207B680122BC
:101D5C0083F83D20002318460837BD4680BD00009F
:101D6C0080B485B000AF78607B6893F83D30DBB20F
:101D7C00012B01D0012335E07B68022283F83D2042
:101D8C007B681B68DA687B681B6842F00102DA60CA
:101D9C007B681B68164A934209D07B681B68B3F1B9
:101DAC00804F04D07B681B68124A934211D17B6828
:101DBC001B689B6803F00703FB60FB68062B10D0C5
:101DCC007B681B681A687B681B6842F001021A600A
:101DDC0007E07B681B681A687B681B6842F001028D
:101DEC001A60002318461437BD4680BC704700BFEC
:101DFC00002C01400004004080B582B000AF786038
:101E0C007B681B681B6903F00203022B22D17B68E1
:101E1C001B68DB6803F00203022B1BD17B681B6879
:101E2C006FF002021A617B6801221A777B681B68CB
:101E3C009B6903F00303002B03D0786800F0B4F91E
:101E4C0005E0786800F0A7F9786800F0B6F97B68CF
:101E5C0000221A777B681B681B6903F00403042BB0
:101E6C0022D17B681B68DB6803F00403042B1BD1B5
:101E7C007B681B686FF004021A617B6802221A7778
:101E8C007B681B689B6903F44073002B03D0786854
:101E9C0000F08AF905E0786800F07DF9786800F0C8
:101EAC008CF97B6800221A777B681B681B6903F02E
:101EBC000803082B22D17B681B68DB6803F008033E
:101ECC00082B1BD17B681B686FF008021A617B68BA
:101EDC0004221A777B681B68DB6903F00303002B71
:101EEC0003D0786800F060F905E0786800F053F9E9
:101EFC00786800F062F97B6800221A777B681B68AF
:101F0C001B6903F01003102B22D17B681B68DB6864
:101F1C0003F01003102B1BD17B681B686FF01002B1
:101F2C001A617B6808221A777B681B68DB6903F4EB
:101F3C004073002B03D0786800F036F905E0786820
:101F4C0000F029F9786800F038F97B6800221A77DC
:101F5C007B681B681B6903F00103012B0ED17B68A6
:101F6C001B68DB6803F00103012B07D17B681B683E
:101F7C006FF001021A617868FEF784FE7B681B68BB
:101F8C001B6903F08003802B0ED17B681B68DB6818
:101F9C0003F08003802B07D17B681B686FF08002F5
:101FAC001A61786800F06BFA7B681B681B6903F098
:101FBC004003402B0ED17B681B68DB6803F04003A9
:101FCC00402B07D17B681B686FF040021A61786860
:101FDC0000F0FCF87B681B681B6903F02003202BC6
:101FEC000ED17B681B68DB6803F02003202B07D124
:101FFC007B681B686FF020021A61786800F036FA73
:10200C0000BF0837BD4680BD80B584B000AF786096
:10201C0039600023FB737B6893F83C30012B01D1B2
:10202C000223B4E07B68012283F83C207B68022207
:10203C0083F83D207B681B689B68BB60BB6823F002
:10204C007703BB60BB6823F47F43BB607B681B6872
:10205C00BA689A603B681B68B3F5005F3ED0B3F575
:10206C00005F00F28780B3F5805F00F08680B3F5E7
:10207C00805F7FD8702B1AD0702B7BD8602B50D000
:10208C00602B77D8502B3CD0502B73D8402B58D08A
:10209C00402B6FD8302B64D0302B6BD8202B60D0DA
:1020AC00202B67D8002B5CD0102B5AD062E07B68B9
:1020BC0018683B6899683B685A683B68DB6800F0B5
:1020CC005EF97B681B689B68BB60BB6843F0770359
:1020DC00BB607B681B68BA689A604FE07B681868C5
:1020EC003B6899683B685A683B68DB6800F047F9C5
:1020FC007B681B689A687B681B6842F480429A6014
:10210C003CE07B6818683B6859683B68DB681A469A
:10211C0000F0BEF87B681B685021184600F015F9DA
:10212C002CE07B6818683B6859683B68DB681A468A
:10213C0000F0DCF87B681B686021184600F005F99C
:10214C001CE07B6818683B6859683B68DB681A467A
:10215C0000F09EF87B681B684021184600F0F5F8EB
:10216C000CE07B681A683B681B681946104600F047
:10217C00ECF803E00123FB7300E000BF7B68012255
:10218C0083F83D207B68002283F83C20FB7B1846BB
:10219C001037BD4680BD80B483B000AF786000BFFF
:1021AC000C37BD4680BC704780B483B000AF7860FC
:1021BC0000BF0C37BD4680BC704780B483B000AF05
:1021CC00786000BF0C37BD4680BC704780B483B0CC
:1021DC0000AF786000BF0C37BD4680BC7047000074
:1021EC0080B485B000AF786039607B681B68FB6099
:1021FC007B68254A934207D07B68B3F1804F03D0AC
:10220C007B68224A934208D1FB6823F07003FB6081
:10221C003B685B68FA681343FB607B681A4A93421D
:10222C0007D07B68B3F1804F03D07B68174A934289
:10223C0008D1FB6823F44073FB603B68DB68FA68E9
:10224C001343FB60FB6823F080023B685B6913431C
:10225C00FB607B68FA681A603B689A687B68DA6294
:10226C003B681A687B689A627B68074A934203D181
:10227C003B681A697B681A637B6801225A6100BF4C
:10228C001437BD4680BC7047002C01400004004050
:10229C0080B487B000AFF860B9607A60FB681B6AE5
:1022AC007B61FB681B6A23F00102FB681A62FB6806
:1022BC009B693B613B6923F0F0033B617B681B012D
:1022CC003A6913433B617B6923F00A037B617A69AA
:1022DC00BB6813437B61FB683A699A61FB687A6956
:1022EC001A6200BF1C37BD4680BC704780B487B0F3
:1022FC0000AFF860B9607A60FB681B6A7B61FB68B1
:10230C001B6A23F01002FB681A62FB689B693B6135
:10231C003B6923F470433B617B681B033A691343AD
:10232C003B617B6923F0A0037B61BB681B017A696D
:10233C0013437B61FB683A699A61FB687A691A629C
:10234C0000BF1C37BD4680BC704780B485B000AF61
:10235C00786039607B689B68FB60FB6823F07003D6
:10236C00FB603A68FB68134343F00703FB607B6830
:10237C00FA689A6000BF1437BD4680BC704780B4C1
:10238C0087B000AFF860B9607A603B60FB689B680F
:10239C007B617B6923F47F437B613B681A027B681A
:1023AC001A43BB6813437A6913437B61FB687A69F0
:1023BC009A6000BF1C37BD4680BC704780B485B0A6
:1023CC0000AF786039607B6893F83C30012B01D109
:1023DC00022341E07B68012283F83C207B680222C7
:1023EC0083F83D207B681B685B68FB607B681B681F
:1023FC009B68BB60FB6823F07003FB603B681B6849
:10240C00FA681343FB607B681B68FA685A607B6848
:10241C001B68144A934209D07B681B68B3F1804F48
:10242C0004D07B681B68104A93420CD1BB6823F024
:10243C008003BB603B685B68BA681343BB607B6816
:10244C001B68BA689A607B68012283F83D207B6820
:10245C00002283F83C20002318461437BD4680BC6C
:10246C00704700BF002C01400004004080B483B0D2
:10247C0000AF786000BF0C37BD4680BC704780B49D
:10248C0083B000AF786000BF0C37BD4680BC70478E
:10249C0070B500260C4D0D4C641BA410A64209D13E
:1024AC0000F022F800260A4D0A4C641BA410A64228
:1024BC0005D170BD55F8043B98470136EEE755F849
:1024CC00043B98470136F2E7302500083025000818
:1024DC00302500083425000803460244934200D1FD
:1024EC00704703F8011BF9E7F8B500BFF8BC08BC4E
:1024FC009E467047F8B500BFF8BC08BC9E467047B6
:10250C000000000000000000010203040607080997
:10251C0002030405060708090A0B0C0D0E0F101018
:04252C0001020000A8
:04253000310100086D
:042534000D0100088D
:10253800010000000100000001000000010000008F
:10254800010000000100000001000000010000007F
:10255800010000000100000001000000010000006F
:10256800C8000000C8000000C80000000500000006
:10257800020000000300000001000000020000004B
:1025880003000000040000000A0000000024F4001A
:0825980010000000010000002A
:0400000508000E954C
:00000001FF
